:020000040800F2
:10000000C80C002029020008A50400085D040008AF
:10001000A104000875030008230A0008000000007E
:100020000000000000000000000000006106000861
:100030007903000800000000350500087907000872
:10004000430200084302000843020008430200087C
:10005000430200084302000843020008430200086C
:10006000430200084302000843020008430200085C
:10007000430200084302000843020008430200084C
:10008000430200084302000843020008430200083C
:10009000430200084302000843020008430200082C
:1000A000430200084302000843020008430200081C
:1000B000430200084302000843020008430200080C
:1000C00043020008430200084302000843020008FC
:1000D00043020008E5070008430200084302000845
:1000E00043020008430200084302000843020008DC
:1000F00043020008430200084302000843020008CC
:1001000043020008430200084302000843020008BB
:1001100043020008430200084302000843020008AB
:10012000430200084302000843020008430200089B
:10013000430200084302000843020008430200088B
:10014000430200084302000843020008430200087B
:10015000430200084302000843020008430200086B
:10016000430200084302000843020008430200085B
:10017000430200084302000843020008430200084B
:10018000430200084302000800F002F800F03CF8C7
:100190000AA090E8000C82448344AAF10107DA45E2
:1001A00001D100F031F8AFF2090EBAE80F0013F0F8
:1001B000010F18BFFB1A43F001031847000F00009E
:1001C000200F0000103A24BF78C878C1FAD852072F
:1001D00024BF30C830C144BF04680C6070470000C1
:1001E0000023002400250026103A28BF78C1FBD840
:1001F000520728BF30C148BF0B6070471FB500F0E1
:10020000C7FE1FBD10B510BD00F06EF81146FFF718
:10021000F5FF00F079FC00F0A0F803B4FFF7F2FF5F
:1002200003BC00F000FC0000094880470948004773
:10023000FEE7FEE7FEE7FEE7FEE7FEE7FEE7FEE796
:10024000FEE7FEE704480549054A064B70470000F3
:100250007D07000889010008C8060020C80C00209E
:10026000C8080020C8080020704700000FB40449E7
:1002700010B503AA029800F009F810BC5DF814FB51
:10028000080000207047704770477047074B70B5F3
:100290000D467B4400F011F80446284600F020F893
:1002A00010B14FF0FF3070BD204670BD5708000000
:1002B00001694A1C02610878704700B58FB0CDE92A
:1002C00001310021059105497944CDE9031011461A
:1002D000684600F02EF80FB000BD0000E5FFFFFFFC
:1002E000007B00F080007047754600F03FF8AE4696
:1002F00005006946534620F00700854618B020B532
:10030000FFF7A0FFBDE820404FF000064FF00007C8
:100310004FF000084FF0000B21F00701AC46ACE8AD
:10032000C009ACE8C009ACE8C009ACE8C0098D461A
:1003300070472DE9F04106460024D6E90170F568C2
:100340008046304603E04146B847641C3046A84723
:100350000028F8D12046BDE8F08110B50446AFF37F
:1003600000802046BDE81040FFF757BF00487047A7
:100370006806002000BFFEE77047F0B50A4600217E
:100380000023002400BF3DE0012505FA01F31568B4
:1003900005EA03049C4234D105684F000326BE40A1
:1003A000B543056015794E00B540066835430560D4
:1003B0001579012D02D01579022D16D185684F00CF
:1003C0000326BE40B543856055794E00B54086682A
:1003D00035438560456801268E40B54345604568D4
:1003E00096798E40B6B235434560C5684F00032606
:1003F000BE40B543C560D5794E00B540C6683543AB
:10040000C560491C1029BFD3F0BDF0B500230024FE
:100410004D07ED0E02FA05F3CE1000F1200555F858
:1004200026504E07F70E0F26BE40B543CF1000F101
:10043000200646F82750CE1000F1200555F826502A
:1004400045EA0304CE1000F1200545F82640F0BD32
:1004500041837047018370474161704700BFFEE7E9
:100460001CB50121202000F067F84FF4C060009017
:1004700001208DF8040000208DF8060003208DF87F
:10048000050001208DF8070069460448FFF775FF55
:100490004FF4C0610148FFF7DBFF1CBD00140240B0
:1004A00000BFFEE77047000070B5002100230F2257
:1004B000C4781CB3174C246804F4E064C4F5E06409
:1004C000C4F30721C1F10404E3B20A4144789C401B
:1004D000E1B28478144021430C07210E0E4C0578BC
:1004E0006155047804F01F050124AC4005786D11B6
:1004F000AD0005F1E025C5F8004109E0047804F0FD
:100500001F050124AC40054D0678761145F82640BC
:1005100070BD00000CED00E000E400E080E100E0D0
:1005200002490143024A1160704700000000FA05C9
:100530000CED00E07047000029B1064A1268024342
:10054000044B1A6004E0034A12688243014B1A60AC
:10055000704700003038024029B1064A1268024351
:10056000044B1A6004E0034A12688243014B1A608C
:100570007047000044380240F0B5002100220024FA
:10058000022500260223324F3F6807F00C0121B1FB
:10059000042905D0082937D105E02E4F076036E041
:1005A0002D4F076033E02A4F3F1F3F68C7F3805647
:1005B000274F3F1F3F6807F03F036EB1264FB7FB41
:1005C000F3F7DFF88CC0ACF1040CDCF800C0CCF31E
:1005D000881C07FB0CF40CE01E4FB7FBF3F7DFF8A9
:1005E00070C0ACF1040CDCF800C0CCF3881C07FB35
:1005F0000CF4174F3F1F3F68C7F301477F1C7D0076
:10060000B4FBF5F7076002E0124F076000BF00BFC0
:100610000F4F3F6807F0F0010909104F7A5C076837
:10062000D74047600A4F3F6807F4E051890A0B4FF3
:100630007A5C4768D7408760054F3F6807F46041A0
:10064000490B064F7A5C4768D740C760F0BD000091
:10065000083802400024F40000127A000E00002046
:10066000704700000CB500200190009034480068ED
:1006700040F480303249086000BF3148006800F41F
:10068000003000900198401C0190009818B9019822
:10069000B0F5A04FF1D12A48006800F4003010B145
:1006A0000120009001E0002000900098012846D130
:1006B00023484030006840F08050214940310860B4
:1006C0002048006840F440401E4908601C4808303B
:1006D00000681B49083108600846006840F4004083
:1006E00008600846006840F4A05008601648091FDA
:1006F0000860081F006840F08070091F086000BF94
:100700000F48006800F000700028F9D040F2057032
:100710000E4908600A480830006820F003000849C4
:10072000083108600846006840F00200086000BF19
:1007300003480830006800F00C000828F8D10CBD10
:10074000003802400070004008544007003C02405E
:10075000042808D14FF0E021096941F004014FF06D
:10076000E022116107E04FF0E021096921F0040166
:100770004FF0E022116170477047000010B5154836
:10078000006840F47000134908601348006840F0A6
:1007900001001149086000200F49083108600E4827
:1007A00000680E4908400C4908600D48091D0860A2
:1007B000081F006820F48020091F086000200649F7
:1007C0000C310860FFF74EFF4FF00060014980399F
:1007D000086010BD88ED00E000380240FFFFF6FE23
:1007E0001030002410B540F225511D4800F057F894
:1007F00010B31B4800F00CF9C4B21A48008800F48A
:100800000040C8B91748008800F4804060B10A2C45
:1008100003D000201349088020E01248008840F4EB
:1008200000401049088019E00D2C06D10D480088C1
:1008300040F480400B49088010E00A480088C0F36B
:100840000D0009490C5407480088401C05490880E0
:1008500008460088C72801DD0020088010BD000080
:10086000001001400C000020A005002021B1828969
:1008700042F40052828104E082894DF6FF731A40EF
:100880008281704702460020B1F5007F00D100BF91
:1008900013880B400BB1012000E00020704770B5B9
:1008A0000246002400230025002040F66A16B142CB
:1008B00000D100BFC1F3421501F01F03012606FA63
:1008C00003F3012D02D19689334006E0022D02D1B7
:1008D000168A334001E0968A33400C12012606FA4C
:1008E00004F41688344013B10CB1012000E000205C
:1008F00070BDF0B50346002400260025002040F618
:100900006A17B94200D100BF1846C1F3421401F082
:100910001F06012707FA06F5012C01D10C3004E06F
:10092000022C01D1103000E014301AB107682F43B7
:10093000076002E00768AF430760F0BD2DE9FF479D
:1009400005460E460024A14600BFA046B08900B16E
:1009500000BF2C8A24F44054F08804432C82AC89D4
:1009600041F20C608443B08831890843718908439F
:100970000443AC81AC8A24F44074B0890443AC8253
:100980006846FFF7F9FD2048854202D01F4885429E
:1009900002D1DDF80C9001E0DDF80890A88900F4A0
:1009A000004040B109EBC90000EB09103168490073
:1009B000B0FBF1F707E009EBC90000EB0910316863
:1009C0008900B0FBF1F76420B7FBF0F004012009C7
:1009D000642101FB1078A88900F4004040B1322066
:1009E00000EBC800B0FBF1F000F00700044308E0A2
:1009F000322000EB08106421B0FBF1F000F00F0092
:100A000004432C81BDE8FF87001001400014014021
:100A100001468888C0F308007047C1F3080282804D
:100A2000704700BFFEE700BF7047000010B50446E6
:100A30006FF00400FFF78CFEE11704EB5171C1F376
:100A4000C701074A11701046007800EB4001C1EB66
:100A5000C0104FF6FF7101EAC0000249088010BDC6
:100A6000040000200600002070B504464FF4077013
:100A700094FBF0F0C6B24FF4077094FBF0F100FB6A
:100A8000114085B205E04FF4077000F009F8701EC0
:100A9000C6B2002EF7D115B1284600F001F870BD9E
:100AA0000146114A12884A434FF0E0235A6100225E
:100AB0009A611A46126942F001021A6100BF4FF0B2
:100AC000E022106900F001021AB100F48032002A1D
:100AD000F5D04FF0E022126922F001024FF0E0233E
:100AE0001A6100229A6170470600002000BF054A83
:100AF000128802F04002002AF9D0C2B2014B9A805B
:100B0000704700000010014000244FF4A060FFF780
:100B100007FDA820FFF78AFF4FF4E13000F0E2F96B
:100B2000FFF79EFC00F0BAF927A0FFF79FFB49E012
:100B300000F0BCF92848008800F40040E8B12648DD
:100B4000067826A0FFF792FB00250DE02848415DBE
:100B50002848FFF762FF00BF40212648FFF792FEBA
:100B60000128F9D1681CC5B2B542EFDB22A0FFF71E
:100B70007DFB00201849088024E0601C84B23220EC
:100B800094FBF0F100FB114028B91DA0FFF76EFBAC
:100B900026A0FFF76BFBC82094FBF0F100FB11408F
:100BA00010B928A0FFF762FB1E2094FBF0F100FBB8
:100BB000114038B92A48006808B9012000E0002037
:100BC00027490860B4E700000D0A696E6974206463
:100BD0006F6E65210D0A00000C0000200D0AC4FA9A
:100BE000B7A2CBCDB5C4CFFBCFA2CEAA3A0D0A0097
:100BF000A0050020001001400D0A0D0A00000000B1
:100C00000D0A414C49454E54454B20CCBDCBF7D540
:100C1000DF53544D333246343037BFAAB7A2B0E564
:100C200020B4AEBFDACAB5D1E90D0A00D5FDB5E3EF
:100C3000D4ADD7D340414C49454E54454B0D0A0DD8
:100C40000A0D0A00C7EBCAE4C8EBCAFDBEDD2CD210
:100C5000D4BBD8B3B5BCFCBDE1CAF80D0A00000096
:100C6000A482424270B500211EE0002019E000EB92
:100C7000D07464100E4D05EB4414024600EBD2759F
:100C80006D10A0EB450505EB4105655D01EB4104E9
:100C900004EBC104074E06EBC40600F10804355509
:100CA000401C1228E3DB491C1029DEDB70BD00006C
:100CB0009A0F0008200000201CB501210846FFF70C
:100CC0003BFC0320009001208DF8040000208DF8EB
:100CD000060003208DF8050001208DF80700694605
:100CE0000D48FFF74AFB01212020FFF725FC40F2C9
:100CF000FF10009001208DF8040000208DF8060000
:100D000003208DF8050001208DF80700694603488F
:100D1000FFF733FB1CBD000000000240001402403E
:100D200010B5044604F003010148FFF795FB10BD20
:100D3000000002402DE9FC5F064688464546002437
:100D4000A5E0E0B2FFF7ECFF45464FF0000B89E06D
:100D50004FF480715048FFF77DFB80214E48FFF72C
:100D600077FB1A2D00DB002504EB440000EBC400E8
:100D700006EBC000405D0190201D00EB400101EB3F
:100D8000C00006EBC000405D009004F1080000EBDD
:100D9000400101EBC00006EBC00010F8059004F123
:100DA0000C0000EB400101EBC00006EBC00010F8A6
:100DB00005A06D1C002728E040213748FFF748FBBD
:100DC000C7F10701012088400099084020B10121A6
:100DD0003148FFF73FFB03E001212F48FFF738FBC5
:100DE000C7F107010120884000EA0A0020B108216C
:100DF0002948FFF72FFB03E008212748FFF728FBCE
:100E000040212548FFF726FB7F1C082FD4DB002755
:100E100024E040212048FFF71BFB0120B840019946
:100E2000084020B101211C48FFF714FB03E0012119
:100E30001948FFF70DFB0120B84000EA090020B176
:100E400008211548FFF706FB03E008211248FFF7C9
:100E5000FFFA40211048FFF7FDFA7F1C082FD8DB6E
:100E60000BF1010BBBF1100FFFF672AF80210A48A6
:100E7000FFF7F0FA80210848FFF7EAFA4FF4807193
:100E80000548FFF7E5FA0220FFF7EEFD641C042C8D
:100E9000FFF657AFBDE8FC9F0014024010B5FFF706
:100EA0000BFFFFF7DFFE002010BD000010B500248F
:100EB00005E00A4801680A48FFF73CFF641C282C3B
:100EC000F7DB06480068401C0449086008460068D3
:100ED0001A2801DB0020086010BD0000000000207F
:100EE0002000002010B588B0044601210846FFF715
:100EF00023FB01211020FFF72FFB072209212248A5
:100F0000FFF783FA07220A211F48FFF77EFA4FF402
:100F1000C060069002208DF81C008DF81D00002096
:100F20008DF81E0001208DF81F0006A91648FFF756
:100F300024FA02940020ADF80C00ADF80E00ADF8D4
:100F40001000ADF814000C20ADF8120002A90F48F3
:100F5000FFF7F4FC01210D48FFF788FC012240F265
:100F600025510A48FFF7C5FC25208DF80400032011
:100F70008DF805008DF8060001208DF8070001A806
:100F8000FFF792FA08B010BD0000024000100140C7
:100F90004FF04070E1EE100A7047100011F83C4825
:100FA00020484048BC48104811F8FC881088108838
:100FB00010881488188813FE0000000000007FFCD1
:100FC000444444444444444444444844483C500415
:100FD000600440047FFC4004000000007FFC0080AF
:100FE00000800100010003400520091011082104C0
:100FF00041048100010001000100101C11E03C20AF
:10100000202043FEBCA811241222FDF81088109065
:1010100010BE1502190212140408100011FC3D0440
:1010200021044194BD5411541124FD241154115430
:1010300011941504190411140108082048202BFEEE
:10104000082018202820C9FC0A000100FFFE050026
:101050000C883450C530060E04000110211017FC16
:10106000111081104FFE404017FC144427FCE4444B
:1010700027FC2000211022080404082048202BFE11
:10108000082018202820C9FC0A000100FFFE0500E6
:101090000C883450C530060E04001080108011F802
:1010A00021082A906C60A9982E2628C02B10282091
:1010B00028C82B102060218026000000DC100008CA
:1010C0000000002020000000C4010008FC100008FF
:1010D00020000020A80C0000E00100080000000033
:1010E00000000000000000000000000000000102FD
:0C10F000030401020304060708090000C5
:040000050800018965
:00000001FF
